:020000040000fa
:080000000002040000000000f2
:020000040000fa
:10000800bc2f0000bc2f0000bc2f0000bc2f00003c
:10001800bc2f0000bc2f0000bc2f0000bc2f00002c
:10002800bc2f0000bc2f0000bc2f0000222b0000ba
:10003800bc2f0000bc2f0000bc2f0000bc2f00000c
:10004800bc2f0000bc2f0000bc2f0000bc1d00000e
:10005800bc2f0000bc2f0000bc2f0000bc2f0000ec
:10006800bc2f0000bc2f0000bc2f0000bc2f0000dc
:10007800bc2f0000bc2f0000bc2f0000bc2f0000cc
:10008800bc2f0000bc2f0000bc2f0000bc2f0000bc
:10009800bc2f0000bc2f0000bc2f0000bc2f0000ac
:1000a800bc2f0000bc2f0000bc2f0000bc2f00009c
:1000b800bc2f0000bc2f0000bc2f0000bc2f00008c
:1000c800bc2f0000bc2f0000bc2f0000bc2f00007c
:1000d800bc2f0000bc2f0000bc2f0000bc2f00006c
:1000e800bc2f0000bc2f0000bc2f0000bc2f00005c
:1000f800bc2f0000bc2f0000bc2f0000bc2f00004c
:10010800bc2f0000bc2f0000bc2f0000bc2f00003b
:10011800bc2f0000bc2f0000bc2f0000bc2f00002b
:10012800bc2f0000bc2f0000bc2f0000bc2f00001b
:10013800bc2f0000bc2f0000bc2f0000bc2f00000b
:10014800bc2f0000bc2f0000bc2f0000bc2f0000fb
:10015800bc2f0000bc2f0000bc2f0000bc2f0000eb
:10016800bc2f0000bc2f0000bc2f0000bc2f0000db
:10017800bc2f0000bc2f0000bc2f0000bc2f0000cb
:10018800bc2f0000bc2f0000bc2f0000bc2f0000bb
:10019800bc2f0000bc2f0000bc2f0000bc2f0000ab
:1001a800bc2f0000bc2f0000bc2f0000bc2f00009b
:1001b800bc2f0000bc2f0000bc2f0000bc2f00008b
:1001c800bc2f0000bc2f0000bc2f0000bc2f00007b
:1001d800bc2f0000bc2f0000bc2f0000bc2f00006b
:1001e800bc2f0000bc2f0000bc2f0000bc2f00005b
:0801f800bc2f0000bc2f000029
:020000040000fa
:10020800bc2f0000bc2f0000bc2f0000bc2f00003a
:10021800bc2f0000bc2f0000bc2f0000bc2f00002a
:10022800bc2f0000bc2f0000bc2f0000222b0000b8
:10023800bc2f0000bc2f0000bc2f0000bc2f00000a
:10024800bc2f0000bc2f0000bc2f0000bc1d00000c
:10025800bc2f0000bc2f0000bc2f0000bc2f0000ea
:10026800bc2f0000bc2f0000bc2f0000bc2f0000da
:10027800bc2f0000bc2f0000bc2f0000bc2f0000ca
:10028800bc2f0000bc2f0000bc2f0000bc2f0000ba
:10029800bc2f0000bc2f0000bc2f0000bc2f0000aa
:1002a800bc2f0000bc2f0000bc2f0000bc2f00009a
:1002b800bc2f0000bc2f0000bc2f0000bc2f00008a
:1002c800bc2f0000bc2f0000bc2f0000bc2f00007a
:1002d800bc2f0000bc2f0000bc2f0000bc2f00006a
:1002e800bc2f0000bc2f0000bc2f0000bc2f00005a
:1002f800bc2f0000bc2f0000bc2f0000bc2f00004a
:10030800bc2f0000bc2f0000bc2f0000bc2f000039
:10031800bc2f0000bc2f0000bc2f0000bc2f000029
:10032800bc2f0000bc2f0000bc2f0000bc2f000019
:10033800bc2f0000bc2f0000bc2f0000bc2f000009
:10034800bc2f0000bc2f0000bc2f0000bc2f0000f9
:10035800bc2f0000bc2f0000bc2f0000bc2f0000e9
:10036800bc2f0000bc2f0000bc2f0000bc2f0000d9
:10037800bc2f0000bc2f0000bc2f0000bc2f0000c9
:10038800bc2f0000bc2f0000bc2f0000bc2f0000b9
:10039800bc2f0000bc2f0000bc2f0000bc2f0000a9
:1003a800bc2f0000bc2f0000bc2f0000bc2f000099
:1003b800bc2f0000bc2f0000bc2f0000bc2f000089
:1003c800bc2f0000bc2f0000bc2f0000bc2f000079
:1003d800bc2f0000bc2f0000bc2f0000bc2f000069
:1003e800bc2f0000bc2f0000bc2f0000bc2f000059
:0803f800bc2f0000bc2f000027
:020000040000fa
:10040000cfcd21000e7f22000e01880000000000e9
:10041000000020000000e000020032000001200087
:100420002002880014000700650007000000e000bb
:1004300003003a0060532000010020000200370052
:100440000000200001002000810f70000100320038
:1004500014000700000020000000e000020032004d
:1004600000000200000000009211020000000000e5
:100470000040da000000fe004440a90060072000b0
:100480000000e0000300320000002000a00188000e
:100490004440a800000006008a1f78008b1f7800e7
:1004a0000000060091018800800478000000eb0045
:1004b0001a003700e284440032a0b4009905ba0063
:1004c000e284440032a0b4009906ba00e2844400f9
:1004d00032a0b4000006eb00476fde00fd07b2005b
:1004e000636ce10003003a00ebff07000000eb0043
:1004f0000a003700606ce10004003a00005deb0088
:100500008b05e900fdff3e00040037006168e10053
:10051000010032000086eb000b00070019c7ba008b
:100520001905ba000e04e00003003a000a00e000da
:10053000e0ff3a0000000600fe07b2009e018800be
:100540008a047800f5ff3700395dba008b05e900b1
:100550000c003200295dba008b05e900080032006a
:100560000c00e00003003a00e284440032a0b40032
:10057000f5ff370019ddba008b05e900faff3a00f4
:100580008904e800e184440032a0b40000000600c1
:100590003c2e040000000000c827040000000000fa
:1005a0006a08040000000000740904000000000054
:1005b000a603040000000000e01304000000000097
:1005c00000000500e68747008e1f7800d0bf9f001f
:1005d000e1bf9f000e0037005fba9700144078001b
:1005e000efb99700934078000201e900814f500075
:1005f000040032000080fb008180fb0001005000fd
:100600000600370066875700041fe800030fe80064
:100610000200e000f0ff3a000000eb004f07780016
:100620006f00b10000000600800178000200370072
:10063000b15978000201e9000200e000fcff3a0035
:100640000000060080017800020037008159780020
:100650000201e9000200e000fcff3a000000060091
:020000040000fa
:100660005072000065730000656e00006365000055
:1006700054000000536500006375000072690000bb
:1006800074790000416c0000617200006d5400003c
:100690000046000069720000654100006c610000c6
:1006a000726d00005400000055610000727400007b
:1006b0005258000054610000736b000000410000bc
:1006c00063740000696f00006e4400006f6f0000eb
:1006d00072540000000000001111000022220000ee
:1006e00033330000444400005555000066660000a6
:1006f000777700008888000099990000aaaa000076
:10070000bbbb0000cccc0000dddd0000eeee000045
:10071000cecd0000acab0000494400004c450000c9
:1007200000a50000a5a50000a5a50000a5a5000046
:10073000a5a50000a5a50000a5a50000a5a5000091
:0c074000a5a50000a5a50000a500000074
:020000040000fa
:10074c001200fa00889fbe00000f98000f0478007a
:10075c000f007800800478000040eb00004f780018
:10076c000e0890008000e90051079800000040003e
:10077c000000e8000000e8000000d100800040000c
:10078c000f007800818747000000e8000000d100ce
:10079c0000004000600798000000eb001007980074
:1007ac0009003700ee0090001e0090000000400091
:1007bc00008040008000eb00010878001e009000d3
:1007cc000000e800100798009e0090000e089000b2
:1007dc00808f5000f3ff3500940037006e48900076
:1007ec000080fb00610c2000810f50006300320080
:1007fc00f10c2000810f500004003200310c20005d
:10080c00810f50002f003200880037000000eb00f1
:10081c002007980016003700ee0090002e00900084
:10082c000000400061007800e10f50000d00320024
:10083c00018020002e00900000004000008040004d
:10084c00100078008000eb00120107008000780097
:10085c006e0190002e00900000004000000041004e
:10086c00010878002e0090000000e8002007980096
:10087c00ae0090000e089000808f5000e6ff35000f
:10088c0010c0b300004f7800018020000e089000cb
:10089c000000400000804000100078002d1507007b
:1008ac000000e0005c003200004280008000eb00a1
:1008bc00f80007008040eb000e0890002a0c07009f
:1008cc005a0037000000eb00300798001600370084
:1008dc00ee0090003e0090000000400061007800a7
:1008ec00e10f50000d003200018020003e0090000e
:1008fc000000400000804000100078008000eb00f9
:10090c00e4000700800078006e0190003e0090002b
:10091c000000400000004100010878003e009000fb
:10092c000000e80030079800be0090000e08900010
:10093c00808f5000e6ff350010c0b300004f7800e8
:10094c00018020000e089000000040000080400054
:10095c0010007800ff1407000000e00030003200a7
:10096c00004280008000eb00ca0007008040eb00d2
:10097c000e089000ba0b07002c0037001e407800c0
:10098c000004e000280032000000eb004007980053
:10099c001a003700ee0090004e009000000040005e
:1009ac0061007800e10f500011003a000180200036
:1009bc004e009000000040000080400010007800c5
:1009cc008001eb000001eb008000eb003801070018
:1009dc000000e00006003200ee0090004e00900097
:1009ec0000004000008040008000eb00010878000f
:1009fc004e0090000000e80040079800ce009000e8
:100a0c000e089000808f5000e2ff35000040eb0094
:100a1c00004f78000500370000000000030037008d
:100a2c0000000000010037000000000020428000a0
:100a3c00ee0047000081eb00cb0507000000e00052
:100a4c0066ff3a000000eb00bf0e07008907780034
:100a5c00880778004f04be000080fa0000000600f2
:020000040000fa
:100a6c004a08000000140000000000000808000004
:100a7c0002000000000000000a0800000200000054
:100a8c00000000000c080000020000000200000042
:100a9c00ef0000000e080000020000000000000043
:100aac004a1c00002800000000000000861c00000a
:100abc000a00000000000000901c00000a0000006a
:100acc000000000010080000020000000000000000
:100adc001208000002000000000000009a1c000038
:100aec000a00000000000000a41c00000a00000026
:100afc0000000000140800000200000000000000cc
:100b0c00ae1c00000a0000000000000016080000e7
:100b1c0002000000000000001808000002000000a5
:100b2c00000000001a080000020000000000000095
:100b3c001c08000002000000000000001e0800005d
:100b4c00020000000000000020080000020000006d
:100b5c00000000002208000002000000000000005d
:100b6c00240800000200000000000000260800001d
:100b7c000200000000000000280800000200000035
:100b8c00000000002a080000020000000000000025
:100b9c00721c00001400000000000000b81c0000d3
:100bac000a00000000000000c21c00000a00000047
:100bbc00000000002c0800000200000000000000f3
:100bcc002e0800000200000000000000cc1c0000f9
:100bdc000a000000000000003008000002000000c5
:100bec0000000000320800000200000000000000bd
:100bfc00340800000200000000000000360800006d
:100c0c000200000000000000380800000200000094
:100c1c00000000003a080000020000000000000084
:100c2c00000800000800000000000000d61c0000b6
:100c3c0006000000000000003c080000020000005c
:100c4c00000000003e080000020000000000000050
:100c5c0040080000020000000000000042080000f4
:100c6c000200000000000000440800000200000028
:100c7c000000000046080000020000000200000016
:100c8c00ff00000048080000020000000000000007
:040c9c000000000054
:020000040000fa
:100ca0001200fa0070079800010f98000000eb0096
:100cb000000f7800fe009000210798000000eb0074
:100cc0001007980003003700000000000100370003
:100cd00000000000901307002e009000e008900034
:100ce000310798003e0090000000e0001a0032003a
:100cf0003e0090008000e9002e00900061089800fe
:100d00002e009000100078000000e00003003a0080
:100d100008140700ae009000a00098002e0090007c
:100d2000400090000000e000080032002e0090001b
:100d3000680040002f0d07000000e00003003200b3
:100d4000a626020000000000000000005613070065
:100d500010002000570037000e0890000000e0004f
:100d600003003a00501307000000eb005100370069
:100d70001e0078000000e00004003a006a0047000e
:100d80001514070010002000000f7800461307001c
:100d900053140700601307002e009000206090009d
:100da000e14f400003003a002e0090008040eb002d
:100db000216098002e00900030609000e14f4000cc
:100dc00003003a002e0090008040eb003160980054
:100dd00035130700f00047006a004700cd0c0700fc
:100de0000000e0001f003a002e009000ff120700f4
:100df0000000e000170032002e0090001000780084
:100e00000000e00006003a00431307002e009000a7
:100e10002000900017080700100798002213070011
:100e20008e0890002e0090007200400054130700be
:100e30002e009000090a0700b90707000000e00033
:100e4000a1ff3a00a62602000000000000000000fa
:100e5000a0ff37002e009000000a0700b00707002f
:100e60009cff37002e009000fc090700ac0707002c
:100e70002e009000dd1207000000e00094ff320019
:100e80001e0090000000e00009003200221307005d
:100e90002e009000c5120700400798002e00900019
:100ea00020009000ce00900040080700fe120700ce
:0c0eb0000000eb000080fa0000000600cb
:020000040000fa
:100ebc001400fa006007980071079800020f980060
:100ecc00130f98000000eb00000f7800ee0090006c
:100edc001107980001003700000000000b130700f9
:100eec001e009000e00890001e009000700890001a
:100efc00808f5000030039001e089000e20f500054
:100f0c0032003a001e009000e00890002107980083
:100f1c001e099000fe0090001e0090006505070061
:100f2c00300798001e009000201090000000e00098
:100f3c000e0032001e089000e20f500003003a0031
:100f4c002e0090000000e0001d003a001e009000f2
:100f5c00760e07000000e00018003200a626020002
:100f6c000000000000000000150037001e0090007b
:100f7c00100890000000e000090032001e009000f4
:100f8c0072004000980c07000000e0000c003200da
:100f9c00a626020000000000000000000800370038
:100fac003e0090000000e00005003200a626020082
:100fbc0000000000000000000100370000000000ed
:100fcc00b6120700100020003d0037000e089000fc
:100fdc000000e00003003a00b01207000000eb0034
:100fec00370037001e0078000000e00004003a00d3
:100ffc00680047007513070010002000000f7800f0
:10100c00a6120700b3130700c01207001e009000c1
:10101c0020609000e14f400003003a001e00900059
:10102c008040eb00216098001e0090003060900022
:10103c00e14f400003003a001e0090008040eb009e
:10104c003160980095120700f000470068004700d7
:10105c002d0c07000000e00015003a001e00900067
:10106c00f81107000000e0000d0032008e0890001f
:10107c001e00900068004000be1207001e00900089
:10108c0073090700230707000000e00092ff3a00f5
:10109c00a626020000000000000000008fff3700b1
:1010ac001e0090006a0907001a0707008bff370023
:1010bc001e00900066090700160707000000eb00f1
:0810cc000080fa00000006009c
:020000040000fa
:1010d4001000fa0070079800631307006007980077
:1010e4000040eb00004f78007e0090008000e90093
:1010f40041079800000040000000e8000000e800fc
:101104000000d100800040000f0078008187470074
:101114000000e8000000d1000000400050079800e3
:101124000000eb001007980009003700de00900073
:101134001e00900000004000008040008000eb0092
:10114400010878001e0090000000e80010079800d5
:101154009e0090007e009000808f5000f3ff3500c9
:10116400a0168000610060000000e0002f00320043
:10117400d422a80090cd210011c0b300014878000a
:101184000000eb002007980016003700de009000f6
:101194002e0090000000400061007800e10f500034
:1011a4000d003200018020002e009000000040005d
:1011b40000804000100078008000eb00b7fe0700bc
:1011c400800078005e0190002e0090000000400036
:1011d40000004100010878002e0090000000e800a3
:1011e40020079800ae0090007e009000808f500091
:1011f400e6ff350010c0b300004f780001802000e6
:101204007e00900000004000008040001000780044
:10121400d21207000000e0002e0032008040eb00f4
:101224007e009000900907002a0037001e407800d5
:101234000004e00027003200d422a90090cd210050
:101244008040eb00014878000000eb003007980074
:101254001a003700de0090003e00900000004000bd
:1012640061007800e10f500011003a000180200075
:101274003e00900000004000008040001000780014
:101284008001eb000001eb008000eb000aff070087
:101294000000e00006003200de0090003e009000f6
:1012a40000004000008040008000eb00010878004e
:1012b4003e0090000000e80030079800be00900057
:1012c4007e009000808f5000e2ff35000040eb006c
:1012d400004f78006c00470041012000a20a07007b
:0412e4009fff370031
:020000040000fa
:1012e8001000fa0070079800de12070060079800e7
:1012f8000040eb00004f78007e0090008000e9007d
:1013080041079800000040000000e8000000e800e5
:101318000000d100800040000f007800818747005e
:101328000000e8000000d1000000400050079800cd
:101338000000eb001007980009003700de0090005d
:101348001e00900000004000008040008000eb007c
:10135800010878001e0090000000e80010079800bf
:101368009e0090007e009000808f5000f3ff3500b3
:1013780010168000610060000000e0002f003200bd
:10138800c222a80080cd210011c0b3000148780016
:101398000000eb002007980016003700de009000e0
:1013a8002e0090000000400061007800e10f50001e
:1013b8000d003200018020002e0090000000400047
:1013c80000804000100078008000eb0032fe07002b
:1013d800800078005e0190002e0090000000400020
:1013e80000004100010878002e0090000000e8008d
:1013f80020079800ae0090007e009000808f50007b
:10140800e6ff350010c0b300004f780001802000cf
:101418007e0090000000400000804000100078002e
:101428004d1207000000e0002e0032008040eb0063
:101438007e0090004d0907002a0037001e40780002
:101448000004e00027003200c222a90080cd21005c
:101458008040eb00014878000000eb00300798005e
:101468001a003700de0090003e00900000004000a7
:1014780061007800e10f500011003a00018020005f
:101488003e009000000040000080400010007800fe
:101498008001eb000001eb008000eb0085fe0700f7
:1014a8000000e00006003200de0090003e009000e0
:1014b80000004000008040008000eb000108780038
:1014c8003e0090000000e80030079800be00900041
:1014d8007e009000808f5000e2ff35000040eb0056
:1014e800004f78006c004700410120001d0a0700ea
:0414f8009fff37001b
:020000040000fa
:1014fc001400fa0040079800520798006307980000
:10150c0071079800040f9800150f98001000200028
:10151c00000f7800ce009000110798000000eb003f
:10152c00200798000e0890000000e0000500320033
:10153c001e009000b0109000201090000e0990003a
:10154c000089be001e009000006990006247980060
:10155c001e00900021c0b300016898007e0090002e
:10156c00e20f500017003200e20f500005003e0061
:10157c000000e0002e003200e10f500006003200a7
:10158c002c003700e30f500017003200e40f50001e
:10159c001b003200270037001e0090002011900025
:1015ac00b01190005e009000ee0090000000710001
:1015bc00818071001e01900020119800311198005b
:1015cc001c0037001e009000b010900020109000fe
:1015dc0061004000e08048001e019000201198003e
:1015ec0031119800130037001e0090005e0190002e
:1015fc00ee01900022109800331098000d00370077
:10160c006e409000e24f5000060032001e00900029
:10161c005e019000ee0190002210980033109800ab
:10162c00040037000000eb00000f780001003700c9
:10163c00000000006e409000e14f50002c003a007a
:10164c00504180000000e00016003a001e0090009f
:10165c000080e800e20d07001e009000b00890002a
:10166c00d0408000808f5000030036001e00900098
:10167c0030089000d04088001e0090000081e800e7
:10168c001e009000300890006a00b90080007800bd
:10169c00a0c4210000804000820078007c0e07006e
:1016ac00050037001e0090006c00400080007800a0
:1016bc00a0c92100760e07001e009000b008900013
:1016cc007040800030089000808f50000800360079
:1016dc001e0890000000e000030032001e0890007d
:1016ec001100200001087800100020000041880043
:0c16fc001e0078000080fa0000000600cc
:020000040000fa
:101708001000fa0030079800420798005307980025
:10171800610798007407980010002000000f7800f7
:10172800be00900011079800f91007007e00900095
:101738000000e000050032001e009000b01090008c
:10174800201090007e0190000089be001e009000cd
:1017580000699000424798001e00900021c0b30025
:10176800016898006e009000e20f500017003200e8
:10177800e20f500005003e000000e0002e0032009d
:10178800e10f5000060032002c003700e30f500034
:1017980017003200e40f50001b003200270037000a
:1017a8001e00900020119000b01190004e00900093
:1017b800de00900000007100818071001e01900021
:1017c80020119800311198001c0037001e0090006d
:1017d800b01090002010900061004000e0804800a8
:1017e8001e01900020119800311198001300370055
:1017f8001e0090004e019000de019000221098001b
:10180800331098000d0037004e409000e24f500012
:10181800060032001e0090004e019000de0190008c
:101828002210980033109800040037000000eb00e5
:10183800000f780001003700000000004e409000c3
:10184800e14f50001e003a001e0090000080e800a2
:10185800640d07001e009000b0089000d040800082
:10186800808f5000030036001e0090003008900062
:10187800d04088001e0090000081e8001e00900003
:10188800300890006a00b90080007800a0c42100e8
:101898000080400082007800fe0d07001e009000c6
:1018a800b00890007040800030089000808f500091
:1018b80003003600a6260200000000000000000019
:1018c800771007001e0078000080fa00000006006c
:020000040000fa
:1018d8001400fa0020079800310798004207980082
:1018e800530798006407980075079800060f98003a
:1018f800170f98004e00900000004000800078000c
:101908001e0890004008900001017800510a20004c
:101918004afb07001e089000c008900011079800b5
:101928001e089000c00890004e019000f0ff2700ac
:101938000000410000004000808040001e08900028
:10194800710898003e0090000000e0001900320085
:101958000000eb00000f78000d0037003e009000fb
:101968001e004000904078001e0890001e004000b5
:101978007a004000014878003e0090001e004000b8
:10198800104078000004e000050032001e0fe80057
:101998001e007800e30f5000f0ff3600010037000a
:1019a800000000001e0890008040eb00515898008d
:1019b800030037001e0890008040eb002158980073
:1019c8007e009000e30f5000020036003000200037
:1019d800700798001e089000fe00900031089800db
:1019e8001e089000fe009000011098001e0890004c
:1019f8008000eb00111098001e0890000080e8009d
:101a0800281107001e0890006c00400025110700ef
:101a18001e0890009e089000410098007e009000eb
:101a2800e40010001e089000610098001e08900055
:101a38009e089000110898001e0990006000b800e8
:101a480020119800311198001e0890008040eb008a
:101a5800016898006e019000ae0090001e00900092
:101a6800e7050700800078001e089000010878004c
:101a78000e0890000000e000030032000e089000fd
:101a88009e089000010878000080fa000000060017
:020000040000fa
:101a98000a00fa000000eb00000f780050418000b7
:101aa8000000e00063003a00c04080000000e80049
:101ab800100798009e009000c14088001e0090000a
:101ac8000000e0000a003a008140800021079800e9
:101ad8009040800080408800ae00900091408800cf
:101ae800104180000000e800104188008c0f0700ba
:101af800304180009e009000808f50003c003900eb
:101b080001003700000000008040800010007800cd
:101b18000000e00003003a000080eb00304188003c
:101b28003300370080408000300090003000900083
:101b3800300798003e009000900090004107980000
:101b48009e0090004e009000808f500003003100ee
:101b5800ce00900031418800250037003e009000fb
:101b68000080e8009f0c07003e00900020089000cd
:101b78000000e000030032003e0090006c004000ce
:101b8800980c07003e009000b0089000d0408000fc
:101b9800808f5000030036003e009000300890000f
:101ba800d04088003e0090000081e8003e00900090
:101bb800300890006a00b90080007800a0c42100b5
:101bc8000080400082007800320d07003e0090003f
:101bd800b00890007040800030089000808f50005e
:101be800c8ff390010002000000f7800c6ff37003a
:101bf80070408000300890006a00b90080007800ca
:101c0800a0c421000080400010007800e10f5000bf
:101c18000200360010002000000f7800004180000c
:101c28000000e0000600320010002000000f7800dd
:101c380003003700f04080000000e800f040880012
:0c1c48001e0078000080fa00000006007a
:020000040000fa
:101c54001200fa006007980071079800020f9800bc
:101c64000000eb00000f7800ee00900011079800d0
:101c740003003700000000000100370000000000ee
:101c8400a40f07001e009000e008900021079800b0
:101c94002e0090000000e000180032001e009000aa
:101ca400b000900031079800fe0090001e009000e4
:101cb400940c07001e009000be00900031009800b4
:101cc4001e009000100890000000e00008003200a0
:101cd4001e00900072004000450907000000e0006b
:101ce40003003200a62602000000000000000000ed
:101cf4006c0f070010002000410037000e08900010
:101d04000000e00003003a00660f07000000eb004b
:101d14003b0037001e0078000000e00004003a0099
:101d2400680047002b10070010002000000f780007
:101d34005c0f070069100700760f07001e00900073
:101d440020609000e14f400003003a001e00900024
:101d54008040eb00216098001e00900030609000ed
:101d6400e14f400003003a001e0090008040eb0069
:101d7400316098004b0f0700f000470068004700ef
:101d8400e30807000000e00015003a001e00900080
:101d9400150f07000000e0000d0032008e089000cf
:101da4001e00900072004000740f07001e00900097
:101db40029060700d90307000000e000adff3a0040
:101dc400a62602000000000000000000acff37005f
:101dd4001e00900020060700d0030700a8ff37006c
:101de4001e0090001c060700cc0307001e00900094
:101df400fd0e07000000e000a0ff32000000eb0031
:081e04000080fa000000060056
:020000040000fa
:101e0c000a00fa0020079800310798004207980052
:101e1c00ae0090001107980011028000f0f12f0025
:101e2c00008060000050a00010028800000000003c
:101e3c00000000001e009000600890000000e00010
:101e4c0016003a004e0090000000e0000c0032003a
:101e5c001e00900072004000800078004e00900040
:101e6c00030c070011028000f0f12f0000806000cd
:101e7c001002880000000000c0ff2f004b0037004c
:101e8c0011028000f0f12f00008060001002880029
:101e9c00000000000000eb0044003700110280003d
:101eac00f0f12f000080600010028800000000009c
:101ebc0011028000f0f12f00008060000050a000a3
:101ecc001002880000000000000000001e009000be
:101edc00600890000000e0002c0032001e00900012
:101eec00b00090001e009000001090008080400018
:101efc001e009000310098001e009000b000900071
:101f0c001e00900020009000808f500004003900cb
:101f1c001e009000900078001e0090003100980088
:101f2c001e009000600890008000e9001e009000e8
:101f3c00610898001e009000801090001e00900018
:101f4c003000900001017800800078003e00900085
:101f5c00b2f9070010002000000f78001e0090005e
:101f6c00400090000000e0000a0032001e009000cb
:101f7c0068004000f80c07000000e000050032008b
:101f8c00b0ff2f00000f7800020037000000eb00bc
:101f9c00000f780011028000f0f12f00008060002b
:101fac0010028800000000001e0078000080fa007b
:041fbc00000006001b
:020000040000fa
:101fc0000c00fa0040079800510798000000eb0051
:101fd000000f78005e009000e30f50000200360012
:101fe0003000200050079800cb0e07004e009000f4
:101ff0000000e00002003a0070408000010037005d
:102000004e009000100798001e0090008010900075
:1020100021079800ae0090005e009000808f500075
:1020200051003200de0090002e009000808f5000a2
:102030000c003600704080009e009000808f5000a1
:102040000e00320070408000b00890005e009000ea
:10205000808f500009003e0010002000000f780023
:1020600006003700704080009e009000808f500076
:1020700002003a0010002000000f78001e009000bf
:10208000b0089000310798001e009000801090006a
:102090001e00900030089000808f500003003a002e
:1020a0001e009000de009000310898001e00900095
:1020b000de009000011098001e009000600090006b
:1020c0000000e000040035005e009000e400100015
:1020d0001e009000610098001e00900050019000ca
:1020e0003e0090006a00b90080007800a0c4210082
:1020f00000804000800f510015003a001e00900043
:102100000080e800390b07001e009000b008900026
:10211000d0408000808f5000030036001e009000e9
:1021200030089000d04088001e0090000081e80038
:102130001e009000300890006a00b900800078000e
:10214000a0c421000080400082007800d30b07006b
:102150001e0078000000e00003003200a626020006
:1021600000000000000000004f0e07000080fa0091
:042170000000060065
:020000040000fa
:102174001000fa0050079800610798007207980051
:102184000000eb00000f7800de00900011079800bb
:1021940003003700000000000100370000000000c9
:1021a4005c0e07001e009000e008900021079800d4
:1021b4002e0090000000e00016003200ee009000b7
:1021c4001e0090004f0b07002e0090008000e900d5
:1021d4001e009000610898001e00900040009000ce
:1021e4000000e000080032001e009000680040007b
:1021f400ff0707000000e00003003200a6260200eb
:102204000000000000000000260e0700100020005f
:10221400410037007e0090000000e00003003a0017
:10222400200e07000000eb003b0037001e00780082
:102234000000e00004003a0066004700e50e0700d5
:1022440010002000000f7800160e0700230f07006f
:10225400300e07001e00900020609000e14f400007
:1022640003003a001e0090008040eb0021609800bb
:102274001e00900030609000e14f400003003a00df
:102284001e0090008040eb0031609800050e0700ae
:10229400ee004700660047009d0707000000e000cd
:1022a40015003a001e009000cf0d07000000e0006a
:1022b4000d003200fe0090001e00900072004000ed
:1022c4002e0e07001e009000e3040700930207008f
:1022d4000000e000afff3a00a62602000000000064
:1022e40000000000aeff37001e009000da04070073
:1022f4008a020700aaff37001e009000d6040700d8
:10230400860207001e009000b70d07000000e000e1
:10231400a2ff32000000eb000080fa00000006007b
:020000040000fa
:102324000200fa00220e0700b40e07005c0a070040
:1023340010c0b3008c0d0700d04188000000eb00f2
:10234400000f78001400370032c0b3008000eb00a7
:10235400100020006e0b070080007800028020002f
:102364001e007800000040000000410001087800d1
:10237400018020001e007800000040000080400022
:10238400100078008001eb000001eb008000eb00fe
:10239400c9fa07001e0fe8001e007800e30f500082
:1023a400e9ff34000080eb00b0e6880032c0b300df
:1023b4008000eb0010002000550b0700e04188006e
:1023c40032c0b3008000eb0010002000500b070067
:1023d400f041880032c0b3008000eb001000200000
:1023e4004b0b070000428800200020006f0e0700fe
:1023f4001042880011428000e0418000f40b070085
:1024040011428000f0418000f10b07000041eb0015
:1024140011002000100020003d0b0700204288001e
:10242400807c22008002eb00140020008001eb007d
:10243400320720000133280010080700a08620007e
:102444008002eb002400200013002000320720004b
:10245400a133280009080700409720008002eb0000
:10246400340020002300200032072000913428008b
:1024740002080700603a20008002eb0044002000bc
:10248400330020003207200041352800fb070700f5
:10249400003e21008002eb00140020008001eb00cc
:1024a40032072000f1352800f4070700e30b07008a
:0c24b4000000eb000080fa0000000600b1
:020000040000fa
:1024c0000a00fa0020079800310798004207980098
:1024d0000000eb00000f78002e009000e008900054
:1024e000110798002e009000001090000000e000fe
:1024f0000c003a002e009000100078000000e00070
:102500004a003a002e009000200090005506070077
:10251000000f78002e0090008000eb002100980052
:10252000420037004e0090000000e00019003a0021
:102530002e009000801090002e009000100090005f
:1025400001017800be00900037f807002e009000cf
:10255000900090002e0090000010900080804000bd
:102560002e009000110098002e0090009000900026
:102570002e00900020009000808f50002b0039002a
:102580002e009000900078002e009000110098001e
:10259000260037002e009000801090002e00900042
:1025a0003000900001017800be0090001ef8070086
:1025b0002e009000b00090002e00900000109000bf
:1025c0000000ea00808040002e009000310098005a
:1025d0002e009000b00090002e00900010007800b7
:1025e000808f5000080031002e009000a000900065
:1025f0002e009000001090000000ea008080400053
:102600002e009000310098004e009000e20f500024
:1026100006003a001e0090000000e00003003200b7
:102620001e0090000000e900100798001e009000b6
:102630008000e8002e009000610898001e007800dd
:082640000080fa000000060012
:020000040000fa
:102648000e00fa001007980021079800320798003a
:102658004307980054079800650798002c0d070059
:102668007040800000689000e24f50002200320065
:102678007440800024119000b41190001e00900056
:10268800ae0090000080ea008180ea0082027800b3
:1026980003017800800178000100780083826200dd
:1026a800000061008000eb00c000dd000000200099
:1026b8000001be006128b80000017100818171002d
:1026c80022129800331298007040800011c0b300a5
:1026d800016898006e0090000000e00006003200db
:1026e800110020006e00900063080700a626020073
:1026f8000000000000000000e90c0700040d0700be
:102708005e0090000000e00005003200704080008c
:10271800b0109000201090005e0190000089be006b
:102728007040800000689000e24f500003003200c3
:102738000000eb00000f780018003700744080009c
:1027480024119000b41190003e009000ce0090003b
:102758000080ea008180ea008202780003017800a4
:102768008001780001007800838262000000610027
:102778008000eb00c000dd00000020000001be006a
:102788006128b8000001710081817100221298004f
:102798003312980010002000000f7800704080006d
:1027a8008040eb0001689800bd0c07001e0078000f
:0827b8000080fa000000060099
:020000040000fa
:1027c0000400fa004b0037008000eb001e00900070
:1027d00033f90700e04180009e009000808f500098
:1027e00020003a000e00370020002000b0e68800ec
:1027f000701680007e0060008000d10010fe2f0067
:1028000081007000701680000080600070168800e3
:10281000f0418000220220008000eb000dfd070047
:10282000701680007e0060000000e0000a003200a8
:10283000d0168000620060000000e000eaff320075
:1028400000428000460d0700004f78001e407800cf
:102850000004e000e4ff32001e00fb00b0e6880048
:1028600024003700f04180009e009000808f5000cf
:1028700020003a000e00370050002000b0e688002b
:102880007116800010fe2f00010070000000400053
:10289000fe00600070168000010070007016880055
:1028a000e0418000220220008000eb00e9fc0700ec
:1028b000701680007e006000fe0f50000a0032009b
:1028c000d0168000610060000000e000eaff3200e6
:1028d00000428000220d0700004f78001e40780063
:1028e0000004e000e4ff32001e00fb006300400033
:1028f000b0e68800104280008080eb00ba0c070030
:10290000100798001e0090000000e000aeff3a00a3
:102910000000eb000f0707000080fa00000006002f
:020000040000fa
:102920000400fa00510d0700b14180000100500081
:10293000c041880049003700a04180000000e80045
:10294000a0418800c04180000000e900c04188002b
:10295000a04180000000e00039003a0061418000a1
:10296000010f780070418000604188009e0078006f
:1029700071418800330037006041800030009000d2
:1029800030009000100798001e009000900090000a
:10299000a0418000808f50002f003e001102800077
:1029a000f0f12f00008060000050a00010028800ad
:1029b00000000000000000001e0090000080e80001
:1029c0000a0907001e009000200890000000e000a7
:1029d000030032001e0090006c0040000309070055
:1029e00011028000f0f12f000080600010028800ca
:1029f000000000001e009000b00890009041800090
:102a0000808f5000030036001e00900030089000b8
:102a1000904188001e0090000081e8001e00900098
:102a2000300890006a00b9008000780020c72100bb
:102a300000804000820078009809070001003700fc
:102a40000000000060418000100078000000e000fd
:102a5000c9ff3a000100370000000000c0418000bb
:102a60000000e000b4ff3a00a0418000b0418800bf
:082a70000080fa0000000600de
:020000040000fa
:102a78001200fa0050079800610798007207980042
:102a8800030f9800de009000110798000000eb008b
:102a9800200798001e009000e00890001e0090009b
:102aa80070089000808f5000030039000e089000d5
:102ab800e20f50003e003a001e009000b060900007
:102ac800614798001e009000e008900041079800b8
:102ad8000e099000ee0090001e00900076fe0700a0
:102ae8006e409000e14f400025003a001e00900023
:102af800201090000000e000110032000e08900045
:102b0800e20f500003003a004e0090000000e00081
:102b180024003a001e009000850707000000e0002e
:102b28001d0032007e0090000000e0001c00320012
:102b38007e0090001100200001087800190037007d
:102b48001e009000100890000000e0001500320000
:102b58001e00900072004000a40507000000e0007d
:102b6800100032007e0090000000e0000d003200ee
:102b78007e0090001100200001087800090037004d
:102b88006e4090000040e800804078001e009000f1
:102b98003160980003003700000000000100370092
:102ba8000000000010002000000f7800020037002d
:102bb8000000eb00000f78001e0078000080fa008b
:042bc8000000060003
:020000040000fa
:102bcc000a00fa0020079800310798004207980085
:102bdc00ae0090001107980011028000f0f12f0058
:102bec00008060000050a00010028800000000006f
:102bfc00000000001e009000120b07000000e00017
:102c0c00160032004e0090000000e0000c00320074
:102c1c001e00900068004000800078004e0090007c
:102c2c009308070011028000f0f12f000080600073
:102c3c001002880000000000c0ff2f003300370096
:102c4c0011028000f0f12f0000806000100288005b
:102c5c00000000000000eb002c0037001102800087
:102c6c00f0f12f00008060001002880000000000ce
:102c7c0011028000f0f12f00008060000050a000d5
:102c8c001002880000000000000000001e009000f0
:102c9c00e00890001e00900070089000808f50009b
:102cac00120031000001eb00be0090001e009000ed
:102cbc0000fe070010002000000f78001e0090009e
:102ccc00100890000000e0000a0032001e00900086
:102cdc0072004000a00907000000e000050032006f
:102cec00b0ff2f00000f7800020037000000eb004f
:102cfc00000f780011028000f0f12f0000806000be
:102d0c0010028800000000001e0078000080fa000d
:042d1c0000000600ad
:020000040000fa
:102d20000600fa000000eb00000f78000000eb0046
:102d300010079800780b0700504180000000e90060
:102d400050418800504180000000e00045003a00fa
:102d5000b04080000000e000420032002100370057
:102d600000e5800030009000000f78009e007800a1
:102d70006c8040001d0807001e80e8001b0807004b
:102d80001e007800b0089000d0408000808f500076
:102d9000030036001e00780030089000d040880004
:102da0001e81e8001e007800300890006a00b9001b
:102db00080007800a0c421000080400082007800dc
:102dc000b60807001e007800b00890007040800030
:102dd00030089000808f5000020039001000200061
:102de00000418800d0e480000000e000dcff3a00f1
:102df0001e0078000000e00001003200ca0a07004f
:102e0000f1408000210798002e0090000000e000b3
:102e10000c00320020fb07000000e000020032003e
:102e200010002000004188002e0090000000e90002
:102e3000200798002e0090000000e000f5ff3a0007
:102e40001e28ef00004180000000e0000500320075
:102e50001000200010079800a626020000000000c5
:102e600000000000100b07001e0090000080fa0018
:042e70000000060058
:020000040000fa
:102e74000600fa0020079800ae00900011079800a1
:102e84000000eb00000f78002e0090000000e0002e
:102e9400420032001e009000b00890007040800094
:102ea40030089000808f5000340031001e009000e4
:102eb400600090000000e0000500350070408000d4
:102ec40030089000e40010001e009000610098009b
:102ed4001e009000500190001e00900030089000e9
:102ee4006a00b90080007800a0c42100008040007e
:102ef400800f51001a003a001e0090000080e80084
:102f0400b907070070408000b00890001e009000d0
:102f1400310898001e009000b0089000d040800056
:102f2400808f5000030036001e009000300890008f
:102f3400d04088001e0090000081e8001e00900030
:102f4400300890006a00b90080007800a0c4210015
:102f540000804000820078004f080700040037001a
:102f640070408000b00890001e0090003108980066
:102f740010002000000f7800080037001e009000a9
:102f8400801090007040800030089000808f5000c6
:102f94000200310010002000000f78001e007800ad
:082fa4000080fa0000000600a5
:020000040000fa
:102fac000c00fa004007980051079800ce009000e2
:102fbc001107980010002000200798004e00900088
:102fcc000000e000400032001e00900080109000d5
:102fdc005e009000808f5000030031005e01900075
:102fec00020f7800030037001e0090008010900044
:102ffc00010f78001e009000300890009e0f5000ca
:10300c00310032001e009000901090002e009000b5
:10301c00808f50002c003a001e0090003009900068
:10302c00320798001e0090009e007800310898002e
:10303c001e009000600090000000e00004003500cd
:10304c00420020009e0051001e009000610098007c
:10305c001e009000500190003e0090006a00b900e4
:10306c0080007800a0c4210000804000800f510037
:10307c0015003a001e0090000080e8005807070079
:10308c001e009000b0089000d0408000808f50004f
:10309c00030036001e00900030089000d0408800dd
:1030ac001e0090000081e8001e0090003008900087
:1030bc006a00b90080007800a0c4210000804000a4
:1030cc0082007800f20707000080fa00000006007a
:020000040000fa
:1030dc000a00fa0020079800310798004207980070
:1030ec00c001200097060700100798001e009000f2
:1030fc000000e0003c003200804180000000e00055
:10310c0003003a009e00900081418800fe080700f1
:10311c003e009000e10f500002003600100020002d
:10312c00300798001e0090008000eb0051089800ba
:10313c001e009000be009000310898001e00900008
:10314c00ce009000410898001e009000ae00900048
:10315c00010878001e0090000080e800500b07006a
:10316c001e0090006c0040004d0b07001e009000ec
:10317c009e009000410098001e0090009e00900060
:10318c00110898003e009000e20010001e00900014
:10319c00610098001e009000b008900090418000e3
:1031ac00808f5000030036001e0090003008900005
:1031bc00904188001e0090000081e8001e009000e5
:1031cc00300890006a00b9008000780020c7210008
:1031dc000080400082007800ad070700100020003e
:1031ec00000f7800020037000080eb00000f780021
:0c31fc001e0078000080fa0000000600b1
:020000040000fa
:103208002a00fa00201798003117980042179800f2
:10321800e4004700c23628000f000900b218780001
:10322800be109000110798002e1090001e0190000b
:10323800020878002e1090000080e80020179800ff
:103248002e1090008000eb00010878002e109000ee
:103258000080e800201798002e1090008000eb00f6
:10326800010878002e1090000080e80020179800d0
:10327800ce1090002e109000010878002e109000bb
:103288000080e800201798000000eb00000f78008d
:103298000a0037001e0078000000400000004700c8
:1032a800a00090002e109000010878002e109000c9
:1032b8000080e800201798001e0fe8001e00780024
:1032c800ef0f5000f3ff3600210280002e1090000f
:1032d800010878002e1090000080e8002017980060
:1032e80034c0bf008080fb002e10900001087800d9
:1032f8002e1090000080e800201798002e109000f3
:103308008000eb00010878002e1090000080e80093
:10331800201798002e1090000080fa000000060088
:020000040000fa
:103328000e00fa005007980061079800de00900030
:10333800110798000000eb00200798001e0090007d
:10334800e0089000310798001e009000f0089000f7
:103358003e009000808f5000310036001e00900023
:10336800b0609000014f98003e0090008000e80097
:103378001e009000610898000e489000e14f400040
:103388001f003a001e009000201090000000e0008e
:103398000b0032001e009000650507000000e000e9
:1033a8001c0032006e0090000000e000190032009e
:1033b8006e00900011002000010878001500370009
:1033c8001e009000100890000000e000110032007c
:1033d8001e00900072004000840307000000e00017
:1033e8000c0032006e0090000000e000090032007e
:1033f8006e009000110020000108780005003700d9
:103408000e4890000040e800804078001e009000c0
:103418003160980010002000000f7800020037008b
:103428000000eb00000f78001e0078000080fa0012
:04343800000006008a
:020000040000fa
:10343c000600fa0010079800210798009e009000e3
:10344c00010f7800b10907001e0078001001780008
:10345c001e007800f00890001e007800001090000c
:10346c000088b90000007800800041001e00780040
:10347c00210098001e0078008000eb006108980085
:10348c001e007800900078001e0078001100980053
:10349c001e007800100178001e0078007008900063
:1034ac008000e9001e007800001090000088b90030
:1034bc0000007800800041001e0078003100980068
:1034cc001e00780080c0eb00216098001e00780080
:1034dc0080c0eb00316098002e0090000000e000ee
:1034ec000d003a001e007800400090000000e00043
:1034fc000f0032009e007800688040003a030700fd
:10350c000000e0000a003200a626020000000000c5
:10351c0000000000060037009e0078006880400024
:10352c00130807009e007800728040001008070006
:10353c005a090700100020000080fa000000060065
:020000040000fa
:10354c000a00fa003007980041079800be0090006e
:10355c00010f78000000eb00100798001e007800a7
:10356c0080689000414798001e00780021c0b3008d
:10357c00016898001e007800b01090002010900098
:10358c0061004000e08048001e0178002011980086
:10359c00311198004e409000e14f50002a003a0043
:1035ac00504180000000e00014003a001e80e8004a
:1035bc000b0607001e007800b0089000d040800079
:1035cc00808f5000030036001e00780030089000f9
:1035dc00d04088001e81e8001e0078003008900062
:1035ec006a00b90080007800a0c42100008040006f
:1035fc0082007800a6060700050037009e007800c0
:10360c006c80400080007800a0c92100a006070053
:10361c001e007800b00890007040800030089000c8
:10362c00808f5000080036004e0090000000e00033
:10363c00030032004e0090001100200001087800b9
:10364c0010002000004188000080fa0000000600f5
:020000040000fa
:10365c000400fa00100798002c0907001e009000c7
:10366c00b0609000014f7800150037001e009000ec
:10367c00201090000000e000060032001e009000b8
:10368c00aa0407000000e0000c0032001d0a07002d
:10369c000a0037001e009000100890000000e000a7
:1036ac000b0032001e00900072004000ce0207009a
:1036bc000000e00001003200120a07001e4fe90072
:1036cc001e4078000004e000e8ff3c0001003700d9
:1036dc00000000001e00900080c0eb0031609800dc
:1036ec00ee080700090907001e009000a06090007a
:1036fc00114798000d0037001e009000400090000c
:10370c000000e0000d0032001e0090006800400038
:10371c00b50207000000e00001003200f9090700c3
:10372c001e4090000040e900104798001e40900099
:10373c000004e000f0ff3c00010037000000000036
:10374c001e00900080c0eb0021609800d308070099
:08375c000080fa0000000600e5
:020000040000fa
:103764000600fa00504180000000e000030032002f
:103774001000200000418800390037002028ef00a5
:103784007040800070089000100798001e009000a0
:1037940074005000100798004201200011392800dd
:1037a4001e00900086f307000000e00004003200d1
:1037b40070408000fa004000704080004509070016
:1037c400d1408000010f7800010037001e0fe9008e
:1037d4001e0078006a00b90080007800a0c42100af
:1037e40000804000100078000000e000f7ff320085
:1037f4001e0078006a00b90080007800a0c421008f
:1038040000804000200798002e00900010009000d7
:10381400900090002e009000110098002e0090005f
:10382400900090002e00900064004000808f5000b3
:1038340005003a002e0090001000900090009000c7
:103844002e009000110098002e00900010009000af
:1038540030009000704088009e007800d1408800bd
:083864000080fa0000000600dc
:020000040000fa
:10386c000600fa0010079800414798004e4090005f
:10387c008000fb00d01680000040780061406000a2
:10388c000080fb000088b900000078006300400055
:10389c00000f78004e4090000004e00004003a0055
:1038ac00004280008000eb00faf4070005003700ae
:1038bc00004280008001eb000001eb008000eb0077
:1038cc007bf50700b0e680009e0f5000230032000d
:1038dc00b0e68000e50f500020003200d04180009f
:1038ec0021022000ebf40700e10f500019003a0010
:1038fc00018020001e00900000004000008040006d
:10390c0010007800130907000000e0000c003200e2
:10391c00f04180008001eb000001eb008000eb0027
:10392c0063f50700d04180008001eb000001eb0043
:10393c008000eb005ef5070010c0b30008003700f4
:10394c00d04180008001eb000001eb008000eb0017
:10395c0057f5070020c0b300010037000040eb0012
:08396c000080fa0000000600d3
:020000040000fa
:103974000600fa0010079800414798004e40900056
:103984008000fb00d01680000000d1006140600080
:103994000080fb000088b90000007800000f780068
:1039a4004e4090000004e00004003a000042800011
:1039b4008000eb00b9f407000500370000428000e6
:1039c4008001eb000001eb008000eb003af50700fa
:1039d400b0e680009e0f500023003200b0e6800065
:1039e400e20f500020003200d0418000210220006c
:1039f400aaf40700e10f500019003a0001802000ea
:103a04001e0090000000400000804000100078007c
:103a1400d20807000000e0000c003200e041800002
:103a24008001eb000001eb008000eb0022f50700b1
:103a3400d04180008001eb000001eb008000eb002e
:103a44001df5070010c0b30008003700d041800006
:103a54008001eb000001eb008000eb0016f507008d
:103a640020c0b300010037000040eb000080fa00e2
:043a74000000060048
:020000040000fa
:103a78000a00fa00200798003107980042079800ca
:103a8800ae009000110798001e009000600890009a
:103a98000000e000310032001e009000b0009000ed
:103aa8001e00900000109000808040001e009000d2
:103ab800310098001e009000b00090001e00900099
:103ac80020009000808f5000040039001e009000f4
:103ad800900078001e009000310098001e009000b1
:103ae800600890008000e9001e00900061089800be
:103af8001e009000801090001e0090003000900082
:103b080001017800800078003e009000c4f20700b0
:103b18004e009000100078000000e0000c003a0011
:103b28001e009000400090000000e00008003200f5
:103b38001e00900068004000080607000000e00032
:103b4800030032004e0090001100200001087800a8
:103b580010002000000f7800020037000000eb0082
:103b6800000f78001e0078000080fa0000000600b0
:020000040000fa
:103b78003600f800809fbe00829fbe00849fbe0072
:103b8800869fbe003400f80000002000a0018800d5
:103b98000400fa000000eb00100798008560a900f7
:103ba8002000370030118000004f7800a0c7b30014
:103bb8009e40780080cf500002003a004668ef002f
:103bc8001800370046c8bf000004e00006003a00ad
:103bd8001e417800818420008248780010c0b3001c
:103be80046e8b7000f00370046c8bf00e14f500055
:103bf8000c003a001e407800ed4f500007003a00d4
:103c0800204280008e80e800230020000101780017
:103c18008184200096fb07000200370000c0eb00fb
:103c280046e8b70010118000610060000000e00065
:103c3800dcff3a001e0090000000e00003003200a4
:103c4800a626020000000000000000000080fa0024
:103c58003400f9004f03be004f02be004f01be0002
:0c3c68004f00be003600f90000400600ce
:020000040000fa
:103c74000200fa00000f7800a6070700b040800099
:103c84000000e800b0408800704080000000e000c0
:103c940007003a009e00780071408800b040800020
:103ca400e10f50000d003a00730507000b003700c8
:103cb400e04080000000e00008003a00704080000e
:103cc400b00890001e00780030089000808f5000eb
:103cd40002003e009e007800714088002041800070
:103ce4000000e800204188001e007800b008900021
:103cf400d0408000808f5000030036001e00780002
:103d040030089000d04088001e81e8001e00780032
:103d1400300890006a00b90080007800a0c4210037
:103d24000080400082007800db0407005d07070084
:103d3400e04080000000e000090032007040800094
:103d4400b00890001e00780030089000808f50006a
:103d540003003100a626020000000000000000005d
:083d64000080fa0000000600d7
:020000040000fa
:103d6c000c00fa0040079800510798000000eb0087
:103d7c00000f780057080700c14080001107980019
:103d8c004e009000900078005e0090000080400093
:103d9c00200798004e009000900078001e009000c4
:103dac00808f50000c0036004e0090009000780080
:103dbc002e009000808f500012003600ae00900054
:103dcc001e009000808f50000e0036001000200066
:103ddc00000f78000b0037004e0090009000780028
:103dec002e009000808f500004003e00ae0090002a
:103dfc001e009000808f5000020036001000200042
:103e0c00000f78004e009000ae0090000108780082
:103e1c001e0078000000e00005003200ae009000ab
:103e2c001e009000008050008000eb009102070003
:103e3c00b8fb0700300798003e0090000000e0003f
:103e4c0003003a00a626020000000000000000005b
:083e5c000080fa0000000600de
:020000040000fa
:103e64000600fa0020079800ae00900011079800a1
:103e74000000eb00000f78002e0090000000e0002e
:103e84002f0032001e009000101090008000e90006
:103e94001e009000111098001e009000b0089000c1
:103ea4001e00900000109000808f5000240032000b
:103eb4001e009000101090000000e00020003a0066
:103ec4001e0090000080e800c70307001e00900059
:103ed400801090001e009000310898001e00900091
:103ee40030089000e40010001e009000610098006b
:103ef4001e009000b0089000d0408000808f5000d9
:103f0400030036001e00900030089000d040880066
:103f14001e0090000081e8001e0090003008900010
:103f24006a00b90080007800a0c42100008040002d
:103f3400820078005804070010002000000f780069
:0c3f44001e0078000080fa00000006005b
:020000040000fa
:103f50000400fa0010079800ef0607001e0090000a
:103f60000000e00002003a007040800001003700cd
:103f70001e009000000f78001e80e8009b030700e1
:103f80001e007800200890000000e00003003200ce
:103f90009e0078006c804000940307001e80e800bb
:103fa00080007800e0ca21003c0407001e00780071
:103fb00000689000e14f500003003a001e007800b6
:103fc0008040eb0001689800b7060700e0408000e1
:103fd0000000e00003003200cf0607005206070091
:103fe000b1060700704080009e007800808f50006e
:103ff0000e003a00e04080000000e00004003200c3
:10400000a6260200000000000000000007003700a4
:1040100071e58000b0408000808f500002003a00bf
:104020000e28ef0001003700cefd07000080fa00e7
:044030000000060086
:020000040000fa
:104034001000fa0050079800610798007207980072
:10404400de009000110798000000eb0020079800a4
:104054001e009000e0089000310798003e00900098
:104064000000e000250032001e009000a0609000d7
:10407400014f9800ee0090001e009000a10307007d
:104084003e0090008000e9001e0090006108980046
:104094000e489000e14f400010003a001e009000ce
:1040a400400090000000e000110032001e0090006b
:1040b400680040004e0007000000e0000c003200e1
:1040c4007e0090000000e000090032007e009000b5
:1040d4001100200001087800050037000e48900008
:1040e4000040e800804078001e00900021609800a5
:1040f40010002000000f7800020037000000eb00e1
:10410400000f78001e0078000080fa00000006000e
:020000040000fa
:104114000a00fa0030079800410798007d0607005e
:10412400c1408000110798003e00900010009000ec
:104134009e00900000805000200798004e009000e0
:1041440010007800e10f400003003a000000eb008b
:10415400000f7800220037003e00900090007800a5
:1041640010418000808f5000080032003e00900013
:10417400900090001e009000808f500003003e00cd
:1041840010002000000f7800150037004e0090004a
:10419400900078002e009000808f50000b003600b5
:1041a4004e009000900078002e0090008080500017
:1041b4004e009000010878003e00900005070700bb
:1041c4000000eb00000f7800050037004e0090005f
:1041d4008000eb000108780010002000000f780038
:1041e400300607001e0078000080fa000000060078
:020000040000fa
:1041f4000600fa00200798002e009000300090007e
:1042040030009000100798001e0090006c004000e1
:10421400f5020700504180000000e00016003a005b
:104224001e0090000080e800ef0207001e009000ce
:10423400b0089000d0408000808f5000030036000a
:104244001e00900030089000d04088001e009000ae
:104254000081e8001e009000300890006a00b90058
:1042640080007800a0c42100008040008200780013
:1042740089030700050037001e0090006c00400011
:1042840080007800a0c92100830307001e0090006d
:10429400b00890007040800030089000808f50007b
:1042a4000500360010002000000f780010002000e8
:1042b40000418800020037000000eb00000f780086
:0c42c4001e0078000080fa0000000600d8
:020000040000fa
:1042d0000800fa0020079800310798000e06070032
:1042e00070408000b010900020109000e00f50004f
:1042f000e08f58000c003a007040800011c0b300fd
:10430000016898003e0090000000e00006003200c6
:10431000110020003e00900059010700a62602006f
:104320000000000000000000df050700fa0507009c
:104330007040800020119000b0119000028fbe00ec
:104340001e00be00e00f5000e08f58000f0032004a
:104350002e0090000000e000050032007240800056
:104360006000b80020119800311198000700370054
:10437000724080000082eb008082eb003e00420031
:10438000ae804a00201198003111980070408000e2
:104390008040eb0001689800c30507001e00be00c6
:0843a0000080fa000000060095
:020000040000fa
:1043a8000200fa00bc0107005bf9070006003700ad
:1043b800904180000000e0002c0032009041800015
:1043c8000000e90090418800904180006a00b9002f
:1043d8008000780020c7210000804000100078008d
:1043e8000000e000f2ff3200904180006a00b9004e
:1043f8008000780020c72100008f40001e00780050
:1044080010009000900090001e00780011009800a5
:104418001e007800900090001e01780064004100a2
:10442800808f500005003a001e00780010009000b0
:10443800900090001e007800110098001e0078007f
:10444800100090003000900080418800804180007a
:104458001001780080418000c008900080418000f1
:104468000200010000000000010037000000000009
:084478000080fa0000000600bc
:020000040000fa
:104480001000fa00200798003107980042079800b2
:10449000530798006407980075079800a002200051
:1044a000ab010700000f78001e0078000000e0005c
:1044b0000e0032004e00900000004000a4010700f2
:1044c000800078001e007800410898001e007800e7
:1044d000400890000000e00004003a001e00780050
:1044e000900607000000eb00000f78001e00780027
:1044f0000000e000120032004e0090008000eb004f
:104500000001eb00821f78009e0378007e0390007c
:10451000ee0290005e0290000001be00be0090001e
:104520002e009000ecf407008f87e9001e00780051
:10453000d0fd07001000200010079800020037008f
:104540000080eb00100798001e0090000080fa0029
:044550000000060061
:020000040000fa
:104554000400fa00100798006e0507001e00900082
:104564000000e00002003a007040800001003700c3
:104574001e009000000f78001e80e8001a02070059
:104584001e007800200890000000e00003003200c4
:104594009e0078006c8040001302070020418000d8
:1045a4000000e80020418800704080009e007800f0
:1045b400808f500008003a001e80e80080007800d8
:1045c40040ca2100b4020700a04080000000e800b7
:1045d400a040880006003700b04080000000e900d9
:1045e400b04088001e0078000e060700cd040700c6
:1045f4002c050700e04080000000e00007003200c6
:10460400704080009e007800808f500003003a00c4
:10461400a626020000000000000000000080fa004e
:04462400000006008c
:020000040000fa
:104628000800fa00300798000000eb00000f78003f
:10463800be009000110798000000eb0020079800ca
:104648001e009000e40307000000e000260032008e
:10465800504180000000e0001e003a001e0090005b
:10466800b00890007040800030089000808f5000a3
:104678000200390010002000000f78001e00900092
:104688000080e800d70107001e009000b0089000e5
:10469800d0408000808f5000030036001e0090003c
:1046a80030089000d04088001e0090000081e8008b
:1046b8001e009000300890006a00b9008000780061
:1046c800a0c4210000804000820078007102070029
:1046d800050037001e0090006c0040008000780044
:1046e800a0c921006b0207001e0078000080fa00b4
:0446f80000000600b8
:020000040000fa
:1046fc000800fa0020079800310798003e0090004f
:10470c0090007800110798001e009000e10f400007
:10471c0004003a002e009000c0009000010f7800b9
:10472c000d0037002e00900064004000000f780050
:10473c00030037001e00780090009000010f7800f5
:10474c001e00780010009000900078001e00900071
:10475c00808f5000f7ff36001e007800900090000c
:10476c003e009000110098003e0090001000900058
:10477c00be009000210098003e0090009e00780042
:10478c00210098001e007800be00900011009800d7
:10479c003e009000ae009000410098002e0090006a
:1047ac00100078008000e8002e00900001087800ce
:0847bc000080fa000000060075
:020000040000fa
:1047c4000400fa00100798009e009000010f780082
:1047d400704080009e007800808f500025003200d9
:1047e4001e0078000000e00022003200c904070027
:1047f4001e007800790307000000e0001c0032006e
:104804001e80e800780107001e007800b0089000c0
:10481400d0408000808f5000030036001e007800d6
:1048240030089000d04088001e81e8001e00780007
:10483400300890006a00b90080007800a0c421000c
:104844000080400082007800130207001e007800f8
:10485400b00890007040800030089000808f5000b5
:1048640003003900a626020000000000000000003a
:0c4874008c0407000080fa000000060021
:020000040000fa
:104880000800fa002007980031079800c140800016
:10489000010f7800704080000080e800530107009d
:1048a0002e009000e10f400009003a003e00900009
:1048b0000000e00006003200704080000080e80048
:1048c00080007800e0ca2100f401070018003700da
:1048d0002e0090001e0040001007980070408000dd
:1048e0009e009000110098001e0090009e0f500046
:1048f00005003100704080008080e800904080001a
:104900007eff07000a003700704080008080e800ca
:104910008040800079ff0700304180009e009000b9
:10492000808f5000020031009e00900031418800cd
:084930000080fa0000000600ff
:020000040000fa
:104938000800fa00300798003e009000a010900090
:10494800110798000000eb00000f78001e0090008f
:10495800e00890001e00900070089000808f5000c2
:104968001d0031001e009000b06090004147980083
:10497800660047000001eb00800078001e009000f0
:10498800cdf60700000f78004e409000e14f400040
:104998000c003a001e009000100890000000e00093
:1049a8000d0032001e009000720040000ffe07004c
:1049b8000000e0000800320010002000000f78001e
:1049c800050037004e4090000040e8008040780025
:1049d8001e009000316098001e0078000080fa00e8
:0449e80000000600c5
:020000040000fa
:1049ec000c00fa0030079800420798005307980013
:1049fc003e0090000000e00002003a007040800091
:104a0c00010037003e009000000f78003f040700c3
:104a1c007040800020119000b01190001207980097
:104a2c00230798001e00780020119000b011900010
:104a3c004e009000de0090000080ea008180ea00c9
:104a4c0002027800030178008001780001007800f0
:104a5c0003026200000061008000eb00c000dd007a
:104a6c00000020000001be006120b80000017100b0
:104a7c00818171001e00780022109800331098007c
:104a8c00060407001e009000ae0090000080fa00a3
:044a9c000000060010
:020000040000fa
:104aa0000200fa002500370011028000f0f12f000b
:104ab000008060000050a00010028800000000008c
:104ac0000000000090e6800030009000000f7800a9
:104ad0009e0078006c804000c40007001102800036
:104ae000f0f12f000080600010028800000000003c
:104af0001e80e800bd0007001e007800b00890008e
:104b000090418000808f5000030036001e00780026
:104b100030089000904188001e81e8001e00780057
:104b2000300890006a00b9008000780020c721009a
:104b300000804000820078005801070060e6800095
:104b40000000e000d8ff3a000080fa0000000600f4
:020000040000fa
:104b50000400fa00100798000000eb00000f780036
:104b60001e00900061006000004078000004e0003a
:104b7000040032001e0090000000a1000080e80048
:104b800010079800d6040700504080000000e000a5
:104b900003003a00c08420000000a10050408800bb
:104ba000414080001e00900080804000d03f2100e6
:104bb000808f50000d003e00414080001e0090009c
:104bc0008080400040408000808f50000700360009
:104bd0005140800040408000008f400041408000f4
:104be0001e00900000804000404088004cf8070004
:0c4bf0001e0078000080fa0000000600a3
:020000040000fa
:104bfc000600fa0010079800210798002e0090007c
:104c0c008000780001f0a0001e00900001087800e0
:104c1c001e00900030009000000f78001e009000e5
:104c2c006f0007001e80e8006d0007001e00780072
:104c3c00b0089000d0408000808f500003003600f8
:104c4c001e00780030089000d04088001e81e800db
:104c5c001e007800300890006a00b90080007800cf
:104c6c00a0c42100008040008200780008010700e9
:104c7c001e007800b0089000704080003008900052
:104c8c00808f500002003600100020000041880088
:084c9c000080fa000000060090
:020000040000fa
:104ca4000200fa0001118000f0cf2f0000806000a4
:104cb4000011880020e2a9002062a90001118000ef
:104cc40090ff2f0000806000001188002002a900de
:104cd40021e2a8002000200040118800111180006a
:104ce400f0f32f0000806000101188001102800092
:104cf400f0f12f00008060000050a0001002880036
:104d040000000000000000008560a900410580004b
:104d1400f0ff28000080600000d0a000400588005b
:104d24009560a8000200370030118000004f780021
:104d340010118000610060000000e000faff3a00fa
:084d44000080fa0000000600e7
:020000040000fa
:104d4c004200f800801f780000022000100288004a
:104d5c00811f7800829fbe00849fbe00869fbe008c
:104d6c00889fbe008a9fbe008c9fbe008e1f78005d
:104d7c003600f8003200f8004400f8003400f80067
:104d8c0060408000801f7800704080000f08780021
:104d9c00b21b0200000000007040800090077800f9
:104dac004f007800604088003400f9004400f9009e
:104dbc003200f9003600f9004f0778004f06be00ac
:104dcc004f05be004f04be004f03be004f02be0095
:104ddc004f01be004f00be004200f900000006006b
:020000040000fa
:104dec000400fa00100798001e009000c00090000c
:104dfc00010f78001e009000100090009e009000a3
:104e0c00a1009000210098001e009000200090004e
:104e1c009e00900091009000110098001e007800f8
:104e2c00900090001e009000808f500004003a000b
:104e3c001e009000a00090001e0078001100980049
:104e4c001e0090008000eb00410098001e007800ce
:104e5c00100078008000e9001e007800010878003e
:104e6c001e007800100078000080fa000000060098
:020000040000fa
:104e7c000600fa001007980021079800a141800055
:104e8c001e009000008f4000804180000080e800f0
:104e9c00d3ff0700804180009e007800110098002d
:104eac00a04180009e007800808f500005003100ea
:104ebc00804180008080e800704180000cfe07007b
:104ecc0004003700804180008080e8006041800051
:104edc0007fe07002e0090000000e00005003200e5
:104eec00804180006c004000800078002e00900013
:0c4efc00fffd07000080fa000000060027
:020000040000fa
:104f08000400fa00000f7800110798001e007800ce
:104f1800001090000000e000190032001e00780028
:104f2800b00090001e0078000010900080804000c3
:104f38001e007800310098001e007800b000900034
:104f48001e00780020009000808f50000400390077
:104f58001e007800900078001e007800310098004c
:104f68001e007800801090001e007800300090002d
:104f780001017800800078001e009000a8ed07006d
:084f88000080fa0000000600a1
:020000040000fa
:104f90000200fa00000f7800301780006200600005
:104fa0000000e0000d003200e602a80001802000b1
:104fb0001e007800000040000080400010007800d3
:104fc000670307000000e0001000320011c0b300ca
:104fd0001e00780067fa07000c003700e602a900ff
:104fe000018020001e00780000004000008040008a
:104ff000100078005a0307000000e00003003200b0
:1050000011c0b3001e00780018fa0700e00120006c
:08501000e6010700e0ff370094
:020000040000fa
:105018000800fa0010079800210798003207980046
:105028009e009000010f78001e007800e0089000b4
:105038001e00780070089000808f50001200310028
:105048000001eb00ae0090001e0078001af5070082
:105058003e0090000000e0000b003a001e007800bf
:10506800100890000000e000070032009e00780061
:1050780072804000b90007000000e0000200320022
:1050880010002000010037003e0090000080fa0068
:04509800000006000e
:020000040000fa
:10509c000600fa0010079800210798001e009000e7
:1050ac0090009000010f78002e0090009e00780078
:1050bc00110098001e007800a00090002e009000b7
:1050cc00210098001e00780020009000ae00900097
:1050dc00110098001e007800ae009000210098008e
:1050ec002e0090009e009000410098001e00900041
:1050fc00100078008000e8001e0090000108780085
:08510c000080fa00000006001b
:020000040000fa
:105114000c00fa003007980041079800224f9800cd
:10512400be0090004e0090000088b9000000780096
:10513400000f7800610220001e80400083fe0700fb
:10514400100798001e0090000000e0000b003200e1
:105154009e009000210798002e0090006002b0008d
:10516400200798001e029000ae4990002e01900086
:10517400ce0090003e009000030007001e00900047
:085184000080fa0000000600a3
:020000040000fa
:10518c000a00fa00000f7800110798002207980017
:10519c0063479800440798001e0090000000e00050
:1051ac0004003a00ce0090004e00900001087800f8
:1051bc0003003700ae0090004e009000010878000c
:1051cc004e0090009e007800710898004e009000f0
:1051dc009e00900001109800110020004e009000dd
:1051ec0093f807004e0090008000eb00211098000f
:0851fc000080fa00000006002b
:020000040000fa
:105204000800fa002007980031079800ae009000cb
:10521400110798001e009000a01090003e0090001e
:10522400808f5000030032000000eb00000f780074
:105234000e0037001e009000600890000000e0009f
:10524400030032000000eb00000f78000700370075
:10525400300207001e0090008000eb00211098002f
:105264001002070010002000000f78001e007800d4
:085274000080fa0000000600b2
:020000040000fa
:10527c000200fa000000eb00000f78000700370076
:10528c001e0078006a00b90080007800a0c42100dc
:10529c0000804000b60007001e0fe8001e007800da
:1052ac00e30f5000f6ff360060c82100b000070085
:1052bc0000c92100ae000700a0c92100ac00070006
:1052cc0040ca2100aa000700e0ca2100a80007007c
:1052dc0060c821008040880000c9210090408800ef
:0852ec000080fa00000006003a
:020000040000fa
:1052f4000c00fa004007980051079800ce00900077
:10530400110798000000eb00200798001e00900091
:10531400600890000000e0000c0032001e009000c5
:10532400b000900031079800de0090001e0090004d
:10533400f4fe07001e009000be00900031009800ab
:1053440010002000000f7800020037000000eb007e
:10535400000f78001e0078000080fa0000000600ac
:020000040000fa
:105364000600fa00200798002e00900030009000fc
:1053740030009000100798001e0090006c00400060
:1053840099fe07001e0090006c0040008000780029
:10539400c0cc210040ff07001e009000b008900020
:1053a4008041800030089000808f50000300390055
:1053b40010002000000f7800020037000000eb000e
:1053c400000f78001e0078000080fa00000006003c
:020000040000fa
:1053d4000600fa001007980021079800cd01070085
:1053e4001e009000201090000000e0000300320036
:1053f4000000eb00000f78000c0037001e00900046
:10540400600890000000e000030032000000eb00a0
:10541400000f7800050037001e009000ae009000d9
:105424002110980010002000000f78009d01070053
:0c5434001e0078000080fa000000060056
:020000040000fa
:105440000200fa00858220000002eb008001eb00e0
:1054500032072000c1382800c0e3220008fc070002
:10546000000f78001e007800e10f50000d003a0098
:1054700011028000f0f12f00008060000050a000b9
:105480001002880000000000000000000080eb0017
:105490003041880010002000e04088001828ef000c
:0c54a000800007000080fa0000000600f9
:020000040000fa
:1054ac000600fa00200798002e0090000000e00093
:1054bc0002003a0070408000010037002e0090007e
:1054cc0010079800910107001e00900000689000e2
:1054dc00e24f500006003a001e0090008040eb00a6
:1054ec000168980010002000000f780002003700bf
:1054fc000000eb00000f7800680107001e00780028
:08550c000080fa000000060017
:020000040000fa
:105514000200fa000000eb00000f780007003700db
:105524001e0078006a00b9008000780020c72100be
:1055340000804000100007001e0fe8001e007800e5
:10554400e10f5000f6ff360080cb21000a0007006f
:1055540020cc210008000700c0cc21000600070071
:1055640080cb21006041880020cc2100704188005c
:085574000080fa0000000600af
:020000040000fa
:10557c000200fa00000f78009e0078006480400062
:10558c00800078001e007800110098001e00780042
:10559c008080eb00210098009e0078006480400021
:1055ac00800078001e007800310098009e00780082
:1055bc0064804000800078001e0078004100980054
:1055cc001e0078008000eb00010878000080fa00d3
:0455dc0000000600c5
:020000040000fa
:1055e0000600fa00200798000000eb00000f78008a
:1055f000ae009000110798001e009000d0009000af
:10560000e0ca2100808f50000b003a001e0090007d
:10561000a0089000a0c92100808f50000600320031
:105620001e009000200890000000e00002003a00f8
:1056300010002000000f78001e0078000080fa00a3
:045640000000060060
:020000040000fa
:105644003600f800809fbe00829fbe00849fbe008b
:10565400869fbe003400f80000002000a0018800ee
:105664000000fa008460a9000af107000000e000cd
:1056740003003200a6260200000000000000000023
:105684000080fa003400f9004f03be004f02be0050
:105694004f01be004f00be003600f9000040060076
:020000040000fa
:1056a4000000fa0055000700704080009007780061
:1056b4004f007800604088003400f9004400f9008d
:1056c4003200f9003600f9004f0778004f06be009b
:1056d4004f05be004f04be004f03be004f02be0084
:1056e4004f01be004f00be004200f900000006005a
:0c56f400100020000080fa0000000600fa
:020000040000fa
:105700000200fa000f0037000301070050e5800097
:1057100030009000000f78001e80e800b3fd070005
:10572000b04080000000e900b0408800a040800048
:105730000000e900a0408800db0007001e007800a0
:10574000b9010700a04080000000e000eeff3a0031
:085750000080fa0000000600d1
:020000040000fa
:105758000200fa00000f78001e0078000000e00048
:105768000e0032001e0078008000eb002100980037
:105778001e0078008000eb00010878001e00780009
:105788008000eb00310098008001eb000001eb0085
:105798008000eb001e007800c6ed07000080fa00cc
:0457a80000000600f7
:020000040000fa
:1057ac000400fa00100798000000eb00000f7800ce
:1057bc001e0090000000e00006003200c50107004a
:1057cc008000eb001e0090002afc070051f507003a
:1057dc00000f78001e0078000000e00003003a0083
:1057ec00a626020000000000000000000080fa0065
:0457fc0000000600a3
:020000040000fa
:105800000400fa000027200001002000008fbe00e5
:105810000421ef000021ef001e007800100888002e
:1058200021058000f0ff28000080600000c0a0007b
:10583000200588008460a9009460a8000481a80065
:1058400004a1a90005e1a8000080fa0000000600fc
:020000040000fa
:105850000400fa0010079800af0007001e00900037
